:020000040800F2
:100000000080012031100008D10F0008D30F000834
:10001000D50F0008D70F0008D90F00080000000016
:10002000000000000000000000000000DB0F0008DE
:10003000DD0F000800000000DF0F0008E10F0008DE
:10004000811000088110000881100008811000084C
:10005000811000088110000881100008811000083C
:10006000811000088110000881100008811000082C
:10007000811000088110000881100008811000081C
:10008000811000088110000881100008811000080C
:1000900081100008811000088110000881100008FC
:1000A00081100008811000088110000881100008EC
:1000B00081100008811000088110000881100008DC
:1000C00081100008811000088110000881100008CC
:1000D00081100008811000088110000881100008BC
:1000E00081100008811000088110000881100008AC
:1000F000811000088110000881100008811000089C
:10010000811000088110000881100008811000088B
:10011000811000088110000881100008811000087B
:10012000811000088110000881100008811000086B
:10013000811000088110000881100008811000085B
:10014000811000088110000881100008811000084B
:10015000811000088110000881100008811000083B
:10016000811000088110000881100008811000082B
:1001700081100008811000088110000800000000B4
:08018000811000088110000845
:1001880010B5054C237833B9044B13B10448AFF3C9
:1001980000800123237010BD4004002000000000EF
:1001A8004812000808B5034B1BB103490348AFF3D5
:1001B800008008BD00000000440400204812000828
:1001C800104B1B680BB90120704710B504464FF45B
:1001D8007A70B0FBF3F30C4A1068B0FBF3F000F050
:1001E80097F868B90F2C01D901200AE000222146AE
:1001F8004FF0FF3000F054F8044B1C60002000E082
:10020800012010BD0000002008000020040000208C
:1002180010B5032000F032F80020FFF7D1FF10B12D
:100228000124204610BD044600F0B6FEF9E70000A0
:10023800034A1368034909680B441360704700BFF9
:100248005C04002000000020014B1868704700BFC4
:100258005C04002038B50446FFF7F6FF0546B4F104
:10026800FF3F02D0044B1B681C44FFF7EDFF401B07
:10027800A042FAD338BD00BF00000020074AD36867
:1002880023F4E0631B041B0C000200F4E06003434A
:1002980043F0BF6343F40033D360704700ED00E0E0
:1002A80000B5194BDB68C3F30223C3F1070CBCF19B
:1002B800040F28BF4FF0040C03F1040EBEF1060F23
:1002C80018D9033B4FF0FF3E0EFA0CFC21EA0C0153
:1002D80099400EFA03F322EA0303194300280BDBC3
:1002E8000901C9B200F1604000F5614080F80013CF
:1002F8005DF804FB0023E5E700F00F000901C9B22F
:10030800024B1954F4E700BF00ED00E014ED00E0E3
:100318000138B0F1807F0BD24FF0E0235861054AD5
:10032800F02182F823100020986107221A61704793
:100338000120704700ED00E0F0B583B0002340E0F5
:10034800C56A25EA0C0CC4F3C0049C4044EA0C04BA
:10035800C46262E0062400E00024B4403C43023555
:10036800684E46F82540684C2568D44325EA0206BD
:100378004F6817F4803F01D042EA0506624D2E60AF
:100388006D6804EA05064F6817F4003F01D042EA99
:1003980005065D4D6E60AD6804EA05064F6817F402
:1003A800801F01D042EA0506574DAE60ED682C402B
:1003B8004E6816F4001F01D042EA0504524AD46080
:1003C80001330A6832FA03F400F099804FF0010C07
:1003D8000CFA03FC1CEA0202F2D04C68651E012DDF
:1003E80003D9112C01D0122C12D185685E00032488
:1003F800B44025EA0405CC68B4402C4384604568C1
:1004080025EA0C054C68C4F300149C402C43446056
:100418004C6804F00305032D92D0C6684FEA430CDC
:10042800032505FA0CF5EC4326EA050E8D6805FA56
:100438000CF545EA0E05C5604D68022D01D0122D58
:1004480012D1DE08083650F8267003F007054FEA87
:10045800850E0F2505FA0EF527EA05070D6905FA39
:100468000EF53D4340F82650056825404C6804F0D9
:10047800030404FA0CF42C4304604C6814F0805F05
:100488009ED0224C256E45F001052566246E04F0A9
:1004980001040194019C9D08AE1C1A4C54F8267066
:1004A80003F00304A6000F24B44027EA0407B0F1C0
:1004B800904F3FF451AF164CA04216D004F580641B
:1004C800A04214D004F58064A04212D004F58064E0
:1004D800A04210D004F58064A0420ED004F58064D8
:1004E800A0423FF437AF072437E7012435E7022459
:1004F80033E7032431E704242FE705242DE703B06D
:10050800F0BD00BF0000014000040140001002409F
:10051800000400480AB18161704781627047000099
:10052800024B186800F4C060704700BF00700040BC
:10053800B0F5007F0FD01F4B1B6803F4C063B3F501
:10054800806F34D01B4A136823F4C06343F480637C
:10055800136000207047174B1B6803F4C063B3F5A2
:10056800007F20D0134A136823F4C06343F4007358
:100578001360114B1B68322202FB03F30F4AA2FBE4
:1005880003239B0C013300E0013B0A4A526912F431
:10059800806F01D0002BF7D1064B5B6913F4806F95
:1005A80003D10020704700207047032070470020C7
:1005B800704700BF007000400800002083DE1B4326
:1005C80030B583B00446204B9B6D13F0805F0BD091
:1005D800FFF7A6FFB0F5007F17D0802C1FD82DD0CD
:1005E800702C2DD000211BE0174DAB6D43F08053CC
:1005F800AB65AB6D03F080530193019BFFF790FF50
:10060800AB6D23F08053AB65E4E7802C03D9A02CB5
:1006180003D9022104E0002102E0012100E00321C6
:100628000A4A136823F007030B431360136803F0A7
:1006380007038B4206D1002003B030BD0221EFE74B
:100648000121EDE70120F7E70010024000200240F9
:10065800284A9368D26802F0030213F00C030AD008
:100668000C2B06D0042B1FD0082B20D000200246CC
:1006780010E0012AF6D11F4A126812F0080F0CD1B7
:100688001C4AD2F89420C2F303221B4951F82220B5
:1006980043B100200C2B0DD07047164A1268C2F3E4
:1006A8000312F2E71046F5E714480022F2E714486F
:1006B8000022EFE70F4BDB6803F00303022B16D091
:1006C800032B00D10E4A0B49C868C0F30210431C23
:1006D800C868C0F3062002FB00F0B0FBF3F0CB685B
:1006E800C3F3416301335B00B0FBF3F0D4E7034A83
:1006F800E9E700BF00100240701200080024F4006F
:1007080000127A00002800F0FC82F0B583B004469D
:10071800964B9D6805F00C05DE6806F00306036835
:1007280013F0100F5AD0E5B10C2D18D0A369002B87
:1007380000F0BB808D4A136843F001031360FFF794
:1007480083FD0746894B1B6813F0020F40F09A801F
:10075800FFF77AFDC01B0228F4D90320DCE2012E42
:10076800E4D1824B1B6813F0020F03D0A369002B5E
:1007780000F0C982206A7D4B1B6813F0080F5BD01C
:100788007A4B1B6803F0F00398425CD8774B1A68E1
:1007980042F008021A601A6822F0F002216A0A433D
:1007A8001A605A6822F47F42E16942EA01225A60DB
:1007B800002D60D0FFF74CFF6C4B9B68C3F303130D
:1007C8006B4AD35C03F01F03D8406A4B18606A4B2E
:1007D8001868FFF7F5FC002840F09E82236813F0A4
:1007E800010F00F08180082D75D00C2D71D0636841
:1007F800B3F5803F00F09780B3F5A02F00F0998003
:100808005A4B1A6822F480321A601A6822F480223D
:100818001A606368002B00F09980FFF715FD074602
:10082800524B1B6813F4003F5ED1FFF70DFDC01B50
:100838006428F5D903206FE24C4BD3F894301B0998
:1008480003F0F003A0E7FFF7BBFE002840F05D824D
:10085800464B1A6842F008021A601A6822F0F00241
:10086800216A0A431A605A6822F47F42E16942EA1F
:1008780001225A609EE7206AFFF7A2FE002899D05D
:10088800012049E2394B1A6842F008021A601A68D6
:1008980022F0F002216A0A431A605A6822F47F4261
:1008A800E16942EA01225A6098E7304A136823F066
:1008B80001031360FFF7C8FC07462C4B1B6813F0B5
:1008C800020F8BD0FFF7C0FCC01B0228F5D903200C
:1008D80022E2032E8BD1254B1B6813F4003F03D073
:1008E8006368002B00F01382236813F0020F58D0BE
:1008F800042D45D00C2D41D0E368002B77D01B4A3E
:10090800136843F480731360FFF79EFC0646174B89
:100918001B6813F4806F61D1FFF796FC801B0228D7
:10092800F5D90320F8E1114A136843F480331360C2
:100938006FE703F18043A3F53C331A6842F4802241
:100948001A601A6842F480321A6062E7FFF77CFC8A
:100958000746064B1B6813F4003FC5D0FFF774FC2D
:10096800C01B6428F5D90320D6E100BF001002405F
:10097800601200080800002004000020022EBBD1ED
:10098800954B1B6813F4806F03D0E368002B00F0CD
:10099800C081914A536823F0F853216943EA0163FF
:1009A8005360236813F0080F4CD063699BB38A4ADD
:1009B800D2F8943043F00103C2F89430FFF744FCB6
:1009C8000646854BD3F8943013F0020F3AD1FFF75F
:1009D8003BFC801B0228F4D903209DE17E4A536822
:1009E80023F0F853216943EA01635360D9E77A4A4F
:1009F800136823F480731360FFF726FC0646764BD2
:100A08001B6813F4806FCCD0FFF71EFC801B0228F4
:100A1800F5D9032080E1704AD2F8943023F001031D
:100A2800C2F89430FFF710FC06466B4BD3F89430AD
:100A380013F0020F06D0FFF707FC801B0228F4D939
:100A4800032069E1236813F0040F7AD0624B9B6D91
:100A580013F0805F36D1604B9A6D42F080529A65F0
:100A68009B6D03F080530193019B01265B4B1B6830
:100A780013F4807F28D0A368012B39D0052B3FD0F1
:100A8800554BD3F8902022F00102C3F89020D3F8F8
:100A9800902022F00402C3F89020A368002B3DD0D8
:100AA800FFF7D2FB07464C4BD3F8903013F0020FF8
:100AB80046D1FFF7C9FBC01B41F288339842F2D9EF
:100AC800032029E10026D1E7444A136843F48073E0
:100AD8001360FFF7B9FB0746404B1B6813F4807F90
:100AE800C9D1FFF7B1FBC01B0228F5D9032013E1D8
:100AF800394AD2F8903043F00103C2F89030CCE77D
:100B0800354BD3F8902042F00402C3F89020D3F874
:100B1800902042F00102C3F89020BEE7FFF794FB53
:100B280007462D4BD3F8903013F0020F08D0FFF78B
:100B38008BFBC01B41F288339842F2D90320EBE0CB
:100B48006EBBA36A002B00F0E680022B2DD00C2D83
:100B580000F0E880204B1A6822F080721A601B6847
:100B680013F0205F04D11C4AD36823F00303D36039
:100B7800194AD36823F0887323F48033D360FFF7CE
:100B880063FB0446144B1B6813F0007F00F0B7802A
:100B9800FFF75AFB001B0228F4D90320BCE00E4AD9
:100BA800936D23F080539365CBE70B4BDB6803F021
:100BB8000301E26A914213D00C2D00F0AF80064B7E
:100BC8001B6813F0806F40F0AB80034B1B6813F079
:100BD800805F31D001209FE000100240007000408B
:100BE80003F07002216B0139B2EB011FE4D103F469
:100BF800FE42616BB2EB012FDED103F40031A26B30
:100C0800073A18BF01229142D6D103F4C001E26B22
:100C18005208013AB1EB425FCED103F0C063226CB7
:100C28005208013AB3EB426FC6D13F4B1B6813F031
:100C3800007F4AD000206FE03B4A136823F080739E
:100C48001360FFF701FB0546374B1B6813F0007F65
:100C580006D0FFF7F9FA401B0228F5D903205BE01C
:100C6800314AD36831491940E36A206B013843EAB5
:100C78000013606B43EA0023E06B4008013843EA45
:100C88004053206C4008013843EA4063A06B0009D8
:100C980043EA40430B43D360136843F08073136007
:100CA800D36843F08073D360FFF7CEFA04461E4B37
:100CB8001B6813F0007F06D1FFF7C6FA001B022855
:100CC800F5D9032028E0002026E0174B1A6842F0E7
:100CD80080721A60DA6842F08072DA60FFF7B4FA5C
:100CE8000446114B1B6813F0007F06D1FFF7ACFADE
:100CF800031B022BF5D903200EE000200CE0002096
:100D08000AE001207047012006E0012004E00120EC
:100D180002E0012000E0002003B0F0BD0120FBE765
:100D28000120F9E70120F7E7001002408C809DF9C7
:100D3800002800F0988070B50C4605464E4B1B689D
:100D480003F007038B420BD24B4A136823F00703C7
:100D58000B431360136803F007038B4240F0858050
:100D68002B6813F0010F39D06B68032B09D0022BC5
:100D780026D063BB414A126812F0020F06D1012047
:100D880070E03E4A126812F0007F70D03B498A68D2
:100D980022F0030213438B60FFF756FA0646374BDF
:100DA8009B6803F00C036A68B3EB820F16D0FFF759
:100DB8004BFA801B41F288339842F0D9032051E066
:100DC8002E4A126812F4003FE0D101204AE02B4A73
:100DD800126812F4806FD9D1012043E02B6813F018
:100DE800020F06D0254A936823F0F003A9680B4345
:100DF8009360214B1B6803F00703A3420AD91E4ADC
:100E0800136823F0070323431360136803F00703F1
:100E1800A3422ED12B6813F0040F06D0174A93680B
:100E280023F4E063E9680B4393602B6813F0080F21
:100E380007D0124A936823F46053296943EAC1032F
:100E48009360FFF705FC0D4B9B68C3F303130C4A33
:100E5800D35C03F01F03D8400A4B18600A4B18688C
:100E6800FFF7AEF970BD012070470120FAE70120B5
:100E7800F8E70120F6E700BF00200240001002401A
:100E880060120008080000200400002070B588B037
:100E98000024039404940594069407941B4BDA6C7D
:100EA80042F00102DA64DA6C02F001020192019A5E
:100EB800DA6C42F00202DA64DB6C03F0020302939C
:100EC800029B224620214FF09040FFF723FB104D54
:100ED80022464FF400512846FFF71CFB20230393BA
:100EE800012604960594069403A94FF09040FFF755
:100EF80023FA4FF40053039304960594069403A928
:100F08002846FFF719FA08B070BD00BF001002406C
:100F18000004004810B596B04422002105A800F04E
:100F2800EDF800240094019402940394049410238F
:100F3800059301230B9360230D9305A8FFF7E2FBAC
:100F48000F23009301940294039404942146684665
:100F5800FFF7EEFE4FF40070FFF7EAFA16B010BD87
:100F680008B5FFF755F9FFF7D5FFFFF78FFF012207
:100F780020214FF09040FFF7CDFA4FF4FA70FFF7B9
:100F880069F9002220214FF09040FFF7C3FA4FF48F
:100F9800FA70FFF75FF9EAE782B00A4B1A6E42F07F
:100FA80001021A661A6E02F001020092009A9A6D06
:100FB80042F080529A659B6D03F080530193019B28
:100FC80002B07047001002407047FEE7FEE7FEE7F8
:100FD800FEE770477047704708B5FFF729F908BD65
:100FE8000F49D1F8883043F47003C1F888300D4BAD
:100FF8001A6842F001021A60002098601A6822F00C
:10100800A85222F410221A604FF48052DA601A684B
:1010180022F480221A6098614FF000638B60704759
:1010280000ED00E000100240DFF834D0002103E0BA
:101038000C4B5B58435004310B480C4B42189A42F6
:10104800F6D30B4A02E0002342F8043B094B9A42CC
:10105800F9D3FFF7C5FF00F02DF8FFF781FFFEE792
:1010680000800120B8120008000000204004002081
:101078004004002084040020FEE70000002301460D
:101088001A46184600F08AB838B5084B084D5B1B5D
:101098009C1007D0043B1D44013C55F8043998477F
:1010A800002CF9D1BDE8384000F0D0B8B4120008DF
:1010B800B012000870B50D4E0D4D761BB61006D057
:1010C800002455F8043B01349847A642F9D1094E4B
:1010D800094D761B00F0B4F8B61006D0002455F878
:1010E800043B01349847A642F9D170BDA812000804
:1010F800A8120008B0120008A8120008F0B4860769
:1011080046D0541E002A3CD0CAB2034601E0013C36
:1011180037D303F8012B9D07F9D1032C2AD9CDB277
:1011280045EA05250F2C45EA054534D9A4F11002F6
:1011380022F00F0C03F120071609674403F110028F
:1011480042E9045542E902551032BA42F8D1721CFC
:1011580014F00C0F03EB021204F00F0613D0331F28
:1011680023F003030433134442F8045B9342FBD196
:1011780006F003042CB1CAB21C4403F8012B9C42AC
:10118800FBD1F0BC704734461346002CF3D1F8E786
:1011980014460346C1E71A462646E0E72DE9F0471C
:1011A800DFF87CA00646DAF8000098460F4691461C
:1011B80000F042F8194B1B68D3F8484124B365681E
:1011C800DAF800001F2D24DC4EB9AB1C0135656030
:1011D80044F8237000F032F80020BDE8F08704EBF3
:1011E80085030122C3F88890D4F88811AA401143D6
:1011F800022EC4F88811C3F80881E6D1D4F88C31DE
:101208001A43C4F88C21E0E703F5A674C3F84841F3
:10121800D5E700F013F84FF0FF30DEE7A012000822
:1012280038040020024B13B10248FFF727BF70476C
:101238000000000091100008704700BF704700BF11
:10124800F8B500BFF8BC08BC9E467047F8B500BFAB
:08125800F8BC08BC9E4670477B
:101260000000000000000000010203040607080956
:10127000A0860100400D0300801A060000350C0016
:1012800040420F0080841E0000093D0000127A00D9
:101290000024F40000366E010048E801006CDC0216
:0812A000100000200000000016
:0812A8002D120008AD01000841
:0812B0008901000800000000A4
:1012B800010000001000000000093D0000000000CF
:1012C80000000000FC02002064030020CC03002082
:1012D8000000000000000000000000000000000006
:1012E80000000000000000000000000000000000F6
:1012F80000000000000000000000000000000000E6
:1013080000000000000000000000000000000000D5
:1013180000000000000000000000000000000000C5
:1013280000000000000000000000000000000000B5
:1013380000000000000000000000000000000000A5
:101348000000000000000000000000000000000095
:101358000000000000000000000000000000000085
:101368000000000000000000010000000000000074
:101378000E33CDAB34126DE6ECDE05000B00000039
:101388000000000000000000000000000000000055
:101398000000000000000000000000000000000045
:1013A8000000000000000000000000000000000035
:1013B8000000000000000000000000000000000025
:1016E800000000000000000060040020000000006E
:0400000508001031AE
:00000001FF
